:0400000081312629FB
:1000080080312100111CE7282000111CE72811105D
:10001800E0309700C03096002200360B5F28AD0A0A
:100028000319AE0A03302E02E93003192D02031C0E
:100038002C28AD01AE01AB0A0319AC0A00302C0222
:10004800B43003192B02031C2C28AB01AC018C150E
:100058002830B40A3402031C3428B401B101B10AAF
:10006800A70A0319A80A01302802903003192702A9
:10007800031C46280130A701A8012100D706220049
:10008800ED01ED0A330803195728A90A0319AA0A2A
:1000980003302A02E83003192902031C5728A90152
:1000A800AA01B201B20A2100480803195F28C80B47
:1000B8005F2822000C1021005E080319D928DE0BE6
:1000C800D9285C08363A031D762824002108B13A5D
:1000D800031D76285508AA3A031D76282100DA015F
:1000E800DA0A872821005C08153A031D8A282400AB
:1000F8002108B23A031D8A283408AA3A031D8A281F
:1001080002302100DA00DD01DD0AD92821005C086F
:10011800063A031D9A2824002108B33A031D9A2899
:100128002508AA3A031D9A280330852821005C086F
:10013800063A031DAA2824002108B43A031DAA2858
:100148002508AA3A031DAA280430852821005C083E
:10015800063A031DBA2824002108B53A031DBA2817
:100168002508AA3A031DBA280530852821005C080D
:10017800063A031DCA2824002108B63A031DCA28D6
:100188002508AA3A031DCA280630852823001D1908
:10019800CF289D1CD7281D129D13000000000000C9
:1001A80023001D169D172100DC015F080319DF28B5
:1001B800DF0BDF2811162200390BE72823009E1CCD
:1001C800E7282200B9012100111E04292000111E70
:1001D8000429220038080319FB28B8033A088600C6
:1001E8008701010823009A002200BA0A0429B808E6
:1001F800031D0329B901B90A2100111204290000BD
:100208002000911E09002100911E090023001908F1
:10021800F0000A302100DE003C305C0203180900BF
:10022800DD08031D09005C08203E860002308700B7
:100238007008810024002008553A031D0900210098
:10024800DC0A090088311F282C25813134258131A9
:10025800272581313B218131572581316425813121
:100268003C2581314021813179258131762D21004C
:100278000C1022000C10080021008C1222008C1691
:1002880021000E108E100E118E118E1222000E14E7
:100298008E106430F100F2011023813122008E1497
:1002A8006430F100F20110238131E230F322813110
:1002B8000530F100F201102381312C30F322813115
:1002C8000530F100F201102381312E30F322813103
:1002D8000530F100F201102381312F30F3228131F2
:1002E8000530F100F201102381312430F3228131ED
:1002F8008130F32281311230F3228131A230F3228E
:100308008131C830F3228131A030F322813140306D
:10031800F3228131AF30F32281314C2B2100610B64
:10032800082A2000C3258131C32281310E2681315C
:10033800A3228131902581310330A3228131CA253E
:1003480081310330FE2481311C30A000A730A10187
:10035800A10AA2009B30A3000330FE2481312C3077
:10036800972581310330FE248131BA25813103304C
:10037800FE248131872581310330FE248131152601
:100388008131A3228131902581310530A322813129
:100398000C30972581310530FE248131DC258131EF
:1003A800FE2481312C30972581310530FE2481319E
:1003B800BA2581310530FE24813187258131053008
:1003C800FE2481311C268131A3228131902581317F
:1003D8000730A3228131E52581310730FE248131A0
:1003E800EE2581310730FE2481312C30972581316B
:1003F8000730FE248131BA2581310730FE2481314E
:10040800872581310730FE2C6108023A031D972A9F
:100418002000C3258131C322813107268131A322DF
:100428008131902581310330A32281310C30A00025
:10043800C730A101A10AA2009A30A3000330FE240C
:1004480081311C30972581310330FE2481312C30D5
:10045800972581310330FE248131D3258131033042
:10046800FE248131872581310330FE248131002625
:100478008131A3228131902581310530A322813138
:10048800E52581310530FE248131EE2581310530A5
:10049800FE2481312C30972581310530FE248131AD
:1004A800D32581310530FE248131872581310530FE
:1004B800FE24813123268131A32281319025813187
:1004C8000730A32281310C30A000C730A101A10A56
:1004D800A2009B30A3000730FE2481311C30A0000D
:1004E8000730A101A10AA2009E30A3000730FE2414
:1004F80081312C30A000A730A101A10AA2009C30B4
:10050800A3000730FE2481313C30A0000730A10150
:10051800A10AA2009D30A3000730FE24813187255F
:1005280081310730FE2C6108033A031D9F2A200001
:10053800C3258131C32A2000C3258131C32AA300E2
:10054800A5012008F90023082507E32281312000AE
:10055800A401210884002208850000082F23813186
:100568002000A10A0319A20A0830A40A2402031CC5
:10057800AD2A0230A50A250203180800A52AA300FF
:10058800A5012008F90023082507E322813120006E
:10059800A401210884002208850000082F23813146
:1005A8002000A10A0319A20A8030A40A2402031C0D
:1005B800CD2A0230A50A250203180800C52AFA0028
:1005C800FF30F907FA077A08B03EF3228131790E35
:1005D8000F39103EF322813179080F39F32AF700D9
:1005E80022000E100E11F8012F26813110238131BF
:1005F800F71F012B22008E16032B22008E123526A0
:100608008131102381310830F735F80A7802031C4C
:10061800F82A22000E140800F301F401720874028B
:10062800031D182B7108730203180800F501F60161
:1006380000000000000000000000000000000000B2
:10064800F50A0319F60A7608750403191C2BF30A30
:100658000319F40A122BF70022000E100E15F801E8
:100668002F26813110238131F71F3D2B22008E1652
:100678003F2B22008E12352681311023813108301C
:10068800F735F80A7802031C342B22000E140800F0
:100698002000A101F901F90A2108013EE322813174
:1006A8002000A00100302F23813120008430A00ACF
:1006B8002002031C562B0930A10A21020318080046
:1006C8004E2B6E0BE62B5F30A0012A268131C32208
:1006D80081310E268131A322813190258131033069
:1006E800A3228131CA2581310330FE248131F725C7
:1006F80081310330FE2481312C309725813103303C
:10070800FE248131BA2581310330FE2481318725C9
:1007180081310330FE24813115268131A3228131B4
:10072800902581310530A32281310C30A00087301B
:10073800A101A10AA2009B30A3000530FE2481314B
:100748001C30A000E730A101A10AA2009D30A3003F
:100758000530FE2481312C30972581310530FE2467
:100768008131D32581310530FE24813187258131BE
:100778000530FE2481311C268131A3228131902548
:1007880081310730A3228131B12581310730FE2420
:1007980081311C30A000C730A101A10AA2009D3000
:1007A800A3000730FE2481319F2581310730FE24C4
:1007B8008131A82581310730FE2481318725813197
:1007C8000730FE2C6E08023A5F30031D672CA0012B
:1007D8002A268131C322813107268131A322813122
:1007E800902581310330A3228131B1258131033035
:1007F800FE2481311C30A0006730A101A10AA200AB
:100808009B30A3000330FE2481319F2581310330C2
:10081800FE248131A82581310330FE2481318725CA
:1008280081310330FE24813100268131A3228131B8
:10083800902581310530A3228131B12581310530E0
:10084800FE2481311C30A000C730A101A10AA200FA
:100858009C30A3000530FE2481319F25813105306D
:10086800FE248131A82581310530FE248131872578
:1008780081310530FE24813123268131A322813143
:10088800902581310730A3228131B125813107308C
:10089800FE2481311C30A0004730A101A10AA2002A
:1008A8009D30A3000730FE2481319F258131073018
:1008B800FE248131A82581310730FE248131872526
:1008C80081310730FE2CA0012A268131C3228131D3
:1008D8009730A001A00AA1009E30A2000330A322F5
:1008E8008131902581310330A3228131B1258131B5
:1008F8000330FE2481311C30A0006730A101A10A19
:10090800A2009D30A3000330FE2481319F25813150
:100918000330FE248131A82581310330FE24813142
:10092800872581310330FE248131A730A001A00A38
:10093800A1009E30A2000530A3228131902581318B
:100948000530A32281310C30972581310530FE24F2
:100958008131DC258131FE2481312C30A0006730C3
:10096800A101A10AA2009C30A3000530FE24813118
:100978003C30A0008730A101A10AA2009D30A3004D
:100988000530FE248131872581310530FE248131EF
:10099800B730A001A00AA1009E30A2000730A32210
:1009A8008131902581310730A3228131CA258131D7
:1009B8000730FE248131F72581310730FE2481314B
:1009C8002C30A000E730A101A10AA2009C30A300AE
:1009D8000730FE2481313C30A0000730A101A10A74
:1009E800A2009C30A3000730FE2481318725813185
:1009F8000730FE2CA400A6012008F90024082607C9
:100A0800E32281312000A501210B102D220884004A
:100A1800230885000008162D220884002308850075
:100A28000008FF3A2F2381312000A20A0319A30AE4
:100A38001030A50A2502031C082D0230A60A26023A
:100A480003180800002D21008C1022008C100800CB
:100A58007030210099001708C1391C389700080028
:100A680023008C018D0121008C1122008C110800BB
:100A78000C12CE3020009B0026001E08F0390C38DE
:100A88009E003F309E05FC3025009F05453026001E
:100A98009C00CF309E052000911087309C051C11CA
:100AA800FC309C050800E03020009700C03096001C
:100AB80060309800991321001114200018100800C4
:100AC800403023009B0003309C0008309F00210029
:100AD8000E138E17203023009E0090309D002100B9
:100AE800911608000B178B17080021008D150D149F
:100AF8000E160D168D148C148D160D150C150D175C
:100B08008D178C1708004C30A0008730A101A10A6E
:100B1800A2009A30A30008000930A0002730A100E5
:100B28009E30A2000800A0002730A101A10AA2005F
:100B38009B30A30008002C30A0002730A101A10A97
:100B4800A2009C30A30008003C30A0004730A1015F
:100B5800A10AA2009B30A30008000C30A0000730B7
:100B6800A101A10AA2009B30A30008003C30A0000C
:100B7800A730A101A10AA2009D30A30008005F30A0
:100B8800A001A00AA1009930A20001340C30A000F5
:100B9800E730A101A10AA2009B30A30008003C3065
:100BA800A0008730A101A10AA2009C30A300080080
:100BB8001C30A000A730A101A10AA2009A30A3000E
:100BC80005340C30A0002730A101A10AA2009D30F5
:100BD800A30008001C30A000E730A101A10AA20070
:100BE8009A30A30008001C30A0004730A101A10AD8
:100BF800A2009C30A30008007730A001A00AA10041
:100C08009E30A20005346730A001A00AA1009E30E2
:100C1800A20003343730A001A00AA1009E30A20030
:100C280003344730A001A00AA1009E30A200053479
:100C38005730A001A00AA1009E30A20007348730D7
:100C4800A001A00AA1009E30A2000734A00AA100BA
:100C58009830A200013422008E110230F100F20116
:100C680008008E150230F100F2010800D9012000B9
:100C78006E0B412E2100CE014A2E6E08023A031D4A
:100C8800482E2100D2014A2E2100CA010430BF2E6D
:100C980021006508083A031DC32E470BC32E0F30E9
:100CA8005902031CA62FD90120006E0B5E2E2100CD
:100CB800CF01672E6E08023A031D652E2100D3016D
:100CC800672E2100CB010630BF2E21006508083AA7
:100CD800031DC32E470BC32E0F305902031CA62F2A
:100CE800D90120006E0B7B2E2100D001842E6E08C6
:100CF800023A031D822E2100D401842E2100CC014A
:100D08000830BF2E21006508083A031DC32E470B83
:100D1800C32E0F305902031CA62FD90120006E0BD9
:100D2800982E2100D101A12E6E08023A031D9F2E94
:100D38002100D501A12E2100CD010A30BF2E2100AE
:100D48006508083A031DC32E470BC32E0F305902FE
:100D5800031CA62FD90120006E0BB52E2100CE0151
:100D6800BE2E6E08023A031DBC2E2100D601BE2EEF
:100D78002100CA010C302000EF00AD31172DD90138
:100D880008006F08053A03194C2E6F08073A031933
:100D9800692E6F08093A0319862E6F080B3A031952
:100DA800A32E6F080D3A031D080021006508083AB4
:100DB800031DC32E470BC32E0F305902031CA62F49
:100DC800D90120006E0BEB2E2100CF01F42E6E0806
:100DD800023A031DF22E2100C901F42E2100CB0195
:100DE8000230BF2E0139D000D1015808D30057086E
:100DF800D200D235D30D50085204D4005108530400
:100E0800D5005408D7005508D8000800C6002100AE
:100E180062082000C700210063082000C8002100E4
:100E280064082000C900080044082100E2002000EE
:100E380045082100E300200046082100E40062087C
:100E4800F1006308F2006408F30008006A08F10082
:100E58006B08F2006C08F30008006208F1006308F0
:100E6800F2006408F3000800F2004630F3002000A6
:100E78006A08F4006B08F5006C08F60008004408DE
:100E8800EA004508EB004608EC000800F20046308E
:100E9800F3006208F4006308F5006408F60008002F
:100EA800C6006A08C7006B08C8006C08C9000800BB
:100EB8007A30F401F5004430F60008002030F401DF
:100EC800F5004130F60008008030F401F5003F30AD
:100ED800F600080002302000EF002200B301A9014B
:100EE800AA01B2010800C830F401F5004230F6004A
:100EF8000800B301A901AA01B201B70055302600C4
:100F0800A00008002030C401C500C1347A30C401F3
:100F1800C500C434C830C401C500C2348030C4011F
:100F2800C5003F342030C401C50041347A30C401C3
:100F3800C50044348030C401C500BF34C830C40182
:100F4800C5004234B731FA2F53346F346C346134EE
:100F580072342034523465346D346F3474346534EB
:100F680021340034573465346C3463346F346D3451
:100F780069346E3467342E342E342E342E340034D3
:100F8800B231882AB431B52CBA31492ABA31582A33
:100F9800BA31392ABA312F2AB1310D29B931D629B6
:100FA800B931DA29BA31042ABA31232A2D342D3439
:100FB8005A344834203461346E3464342034503424
:100FC8004F345734453452342D342D3400340034E2
:100FD80004344234103401340134143401343C34C0
:100FE8000334503404343C34033464008001013148
:060FF800890BFA2F003402
:10102200FE0012001E00FE0B122800345B342D3429
:10103200563431342E3430345D340034C530EE0150
:10104200EF018400003085001D308731F927883197
:1010520020308400013085004D308731F9278831F6
:10106200A0308400013085003C308731F927883177
:10107200203084000230850050308731F9278831D2
:10108200A03084000230850030308731F927883162
:10109200203084000330850050308731F9278831B1
:1010A2000130FC000030EA001630EB004430EC0066
:1010B2001430ED00EB30840087308500E23086008A
:1010C200003087000E308831112088312200013033
:1010D200ED001730840088308500DC308600013056
:1010E20087000830883111208831A8308400873089
:1010F2008500D0308600023087001C3088311120F4
:101102008831DA30840087308500A03086000330D1
:1011120087001130883111208831200090288131D8
:1011220028218831A83154208831AD311D258831DC
:1011320064002200310BA228B9311A218831220021
:10114200B101320BAC2820006F0BAC28BA317622E9
:1011520088312200B20122006D0BFD2E20006F0BA0
:10116200E2292100610B0829D330200053272200F5
:1011720020082000A300220021082000A400220051
:1011820022082000A500BB31ED2388315C27A03165
:1011920017208831503022270330AD318425883121
:1011A200D3305327230020082000A3002300210866
:1011B2002000A400230022082000A500BB31ED235B
:1011C20088315C27A0311720883150302227053022
:1011D200AD3184258831D3305327230059082000AC
:1011E200A30023005A082000A40023005B0820006B
:1011F200A500BB31ED2388315C27A031172088314F
:10120200503022270730AD3184258831FB2E61080A
:10121200023A031D6A29C1302000D6003E27530836
:101222002000A300230054082000A4002300550836
:101232002000A500BB31ED2388315C27A0311720A7
:101242008831503022270330AD3184258831C130B6
:10125200D6003E2756082000A3002300570820008E
:10126200A400230058082000A500BB31ED238831DB
:101272005C27A03117208831503022270530AD314C
:10128200842588312100600B5829B8302000D6000F
:101292009F30D700220035087B27A03117208831E4
:1012A200503022270730AD3184258831FB2EAF30F4
:1012B2002000D6009F30D700220035087B27A031BE
:1012C20017208831503022270730AD3184258831EC
:1012D200FB2E6108033A031DB42995302000D60085
:1012E2009F30D700220024082000D90022002308C2
:1012F2002000D8003B30A03117208831B527883133
:10130200A427AD3184258831A230D6009F30D70082
:10131200220026082000D900220025082000D8003B
:101322003B30A03117208831B5278831B127AD3144
:10133200842588318830D6009F30D70022003008BB
:101342002000D90022002F082000D8003B30A03115
:1013520017208831B527A1000130A2000730AD3136
:1013620084258831FB2EC7302000D6009E30BA2754
:101372008831F4278831A03ECA27BB31ED2388315A
:10138200DC27A03117208831B5278831A427AD3159
:1013920084258831DB30D6009E30BA278831F42785
:1013A2008831A33ECA27BB31ED238831DC27A03127
:1013B20017208831B5278831B127AD31842588318E
:1013C200FB2E6F08023A031DA32A6E0B242AD33088
:1013D200D6009E30D7004727BB31ED2388315C27EA
:1013E200A03117208831523022270330AD318425B5
:1013F2008831C1302927BB31ED2388315C27A031E8
:1014020017208831523022270530AD3184258831AA
:10141200D130802788317B27A03117208831523084
:1014220022270730AD318425883163278831690846
:101432007B27A03117208831723022270730AD3147
:1014420084258831FB2ED5278831031D752A21007A
:101452006A087B27A03117208831523022270330B7
:10146200AD3184258831632788316B087B27A03111
:1014720017208831723022270330AD31842588311C
:10148200D130862788317B27A0311720883152300E
:1014920022270530AD3184258831632788316D08D4
:1014A2007B27A03117208831723022270530AD31D9
:1014B20084258831932788317B27A03117208831F2
:1014C200523022270730AD31842588316327883195
:1014D2006F087B27A031172088317230222707300E
:1014E200AD3184258831FB2EE827A03117208831C1
:1014F200523022270330AD3184258831A827A0310C
:1015020017208831723022270330AD31842588318B
:101512006327883166087B27A03117208831523033
:1015220022270530AD31842588318C2788317B27ED
:10153200A03117208831523022270730AD3184255F
:101542008831FB2E6F08033A031D5C2B6E0BDD2ADC
:10155200D330D6009E30D7004727BB31ED238831E8
:101562005C27A03117208831523022270330AD3159
:10157200842588310230EF00C1302927BB31ED23A9
:1015820088315C27A031172088315230222705305C
:10159200AD3184258831D130802788317B27A03135
:1015A20017208831523022270730AD318425883107
:1015B200632788316908252BD5278831031D2B2BFA
:1015C20021006A087B27A031172088315230222758
:1015D2000330AD31842588310230EF006327883132
:1015E2006B087B27A0311720883172302227033005
:1015F200AD3184258831D130862788317B27A031CF
:1016020017208831523022270530AD3184258831A8
:10161200632788316D087B27A0311720883172300B
:1016220022270530AD3184258831932788317B27E5
:10163200A03117208831523022270730AD3184255E
:101642008831632788316F087B27A03117208831C2
:101652007230552BE827A0311720883152302227CB
:101662000330AD31842588310230EF00A827A03144
:1016720017208831723022270330AD31842588311A
:101682006327883166087B27A031172088315230C2
:1016920022270530AD31842588318C2788317B277C
:1016A200A03117208831523022270730AD318425EE
:1016B20088310330FA2E6F08053A031D0D2C6E0B8C
:1016C200942BC1302927BB31ED2388315C27A0310F
:1016D20017208831523022270530AD3184258831D8
:1016E2000230EF00692788314727BB31ED2388316B
:1016F2005C27A03117208831523022270330AD31C8
:1017020084258831D130802788317B27A03117206A
:101712008831523022270730AD3184258831632742
:1017220088316908D72BED278831031DDD2B210075
:101732006B087B27A03117208831723022270330B3
:10174200AD31842588316E27A0311720883152307F
:1017520022270330AD3184258831D1308627883164
:101762007B27A03117208831523022270530AD3136
:1017720084258831632788316D087B27A0311720A3
:101782008831723022270530AD3184258831932784
:1017920088317B27A0311720883152302227073029
:1017A200AD3184258831632788316F087B27A031CA
:1017B200172088317230062CE327A0311720883198
:1017C200723022270330AD318425883102309A27C6
:1017D200A03117208831523022270330AD318425C1
:1017E20088316327883166087B27A031172088312A
:1017F200523022270530AD31842588318C2788313B
:101802007B27A03117208831523022270730AD3193
:10181200842588310530FA2E6F08073A031DC72C3C
:101822006E0B4D2CD130802788317B27A0311720B9
:101832008831523022270730AD3184258831023079
:10184200EF006327883169087B27A0311720883190
:10185200723022270730AD3184258831C1302927E3
:10186200BB31ED2388315C27A031172088315230FB
:1018720022270530AD3184258831692788314727F1
:10188200BB31ED2388315C27A031172088315230DB
:10189200222788310330C22C6E08023A031D972C8E
:1018A200D130862788317B27A031172088315230EA
:1018B20022270530AD31842588316E27A0311720CB
:1018C2008831523022270330AD3184258831632795
:1018D20088316B087B27A03117208831723022278C
:1018E2000330AD3184258831632788316D087B2729
:1018F200A03117208831723022270530AD3184257E
:101902008831932788317B27A031172088315230C4
:1019120022270730AD3184258831632788316F084B
:101922007B27A031172088317230C02C6327883181
:1019320066087B27A03117208831523022270530D4
:10194200AD318425883102309A27A03117208831A1
:10195200523022270330AD3184258831A827A031A7
:1019620017208831723022270330AD318425883127
:101972008C2788317B27A0311720883152302227CB
:101982000730AD31842588310730FA2E6F08093AC5
:10199200031D8A2D6E0B0A2DD830D6009F30D7003A
:1019A200210069087B27A031172088317230222755
:1019B2000730AD31842588310230EF00D1308027E5
:1019C20088317B27A03117208831523022270730F7
:1019D200AD3184258831C1302927BB31ED238831CF
:1019E2005C27A03117208831523022270530AD31D3
:1019F20084258831692788314727BB31ED23883117
:101A02005C27A031172088315230222788310330D9
:101A1200852D6E08023A031D5A2DD830D6009F300C
:101A2200D70021006D087B27A03117208831723042
:101A320022270530AD31842588316E27A031172049
:101A42008831523022270330AD3184258831632713
:101A520088316B087B27A03117208831723022270A
:101A62000330AD3184258831D130862788317B27F8
:101A7200A03117208831523022270530AD3184251C
:101A82008831932788317B27A03117208831523043
:101A920022270730AD3184258831632788316F08CA
:101AA2007B27A031172088317230222788310730F6
:101AB200852D8C2788317B27A03117208831523021
:101AC20022270730AD318425883102309A27A03190
:101AD20017208831523022270330AD3184258831D6
:101AE200A827A03117208831723022270330AD3168
:101AF200842588316327883166087B27A031172027
:101B02008831523022270530AD31842588310930A1
:101B1200FA2E6F080B3A031D472E6E0BCC2DD330D5
:101B2200D6009E30D7004727BB31ED2388315C2792
:101B3200A03117208831523022270330AD3184255D
:101B420088310230EF00D130802788317B27A031E5
:101B520017208831523022270730AD318425883151
:101B62006327883169087B27A031172088317230BA
:101B720022270730AD3184258831C1302927BB3176
:101B8200ED2388315C27A03117208831523022277B
:101B920088310530422ED5278831031D162E2100AB
:101BA2006E087B27A0311720883152302227073058
:101BB200AD31842588316E27A0311720883152300B
:101BC20022270330AD3184258831632788316B08A1
:101BD2007B27A03117208831723022270330AD31A4
:101BE20084258831D130862788317B27A031172080
:101BF2008831523022270530AD3184258831632760
:101C020088316D087B27A031172088317230222756
:101C12000530AD3184258831632788316F087B27F1
:101C2200A031172088317230402EE827A0311720CA
:101C32008831523022270330AD3184258831023079
:101C4200EF00A827A03117208831723022270330F5
:101C5200AD31842588316327883166087B27A0311E
:101C620017208831523022270530AD318425883142
:101C72008C2788317B27A0311720883152302227C8
:101C82000730AD31842588310B30FA2E6F080D3ABA
:101C9200031DFB2E6E0B872EC1302927BB31ED238E
:101CA20088315C27A0311720883152302227053035
:101CB200AD31842588310230EF00D1308027883160
:101CC2007B27A03117208831523022270730AD31CF
:101CD200842588316327883169087B27A031172042
:101CE2008831723022270730AD3184258831692747
:101CF20088314727BB31ED2388315C27A03117207B
:101D020088315230222788310330F62EED27883170
:101D1200031DCB2E21006F087B27A03117208831AD
:101D2200723022270730AD31842588316E27A031E9
:101D320017208831523022270330AD318425883173
:101D4200632788316B087B27A031172088317230D6
:101D520022270330AD3184258831D130862788315E
:101D62007B27A03117208831523022270530AD3130
:101D720084258831632788316D087B27A03117209D
:101D82008831723022270530AD318425883193277E
:101D92008831EF2EE327A0311720883172302227B5
:101DA2000330AD318425883102309A27A0311720C3
:101DB2008831523022270330AD31842588316327A0
:101DC200883166087B27A0311720883152302227BC
:101DD2000530AD31842588318C2788317B27A031AD
:101DE20017208831523022270730AD3184258831BF
:101DF2000D30EF002200ED0123001D19022F9D1C62
:101E02000A2F1D129D1300000000000023001D1662
:101E12009D1721005D0B9928A93194218831230057
:101E22001D19152F9D1C1D2F1D129D130000000052
:101E3200000023001D169D172100DA01DC01DD01DF
:101E420099282000A0003B30A1000130A200080028
:101E5200D6009F30D700C830A001A1004230A200B6
:101E6200210062082000A300210063082000A400D2
:101E7200210064082000A50008009F30D700C83068
:101E8200A001A1004230A20023000800C830A00136
:101E9200A1004230A2006A08A3006B08A4006C08EB
:101EA200A5000800D6009E30D700C830A001A100CE
:101EB2004230A20008002008D8002108D9002208D8
:101EC200DA003B34D830D6009F30D700210008001A
:101ED200D330D6009E30D70008000230EF00D13058
:101EE200D6009F30D70021006A082000D8003B307E
:101EF200D90108002000D8003B30D9010800D600E3
:101F02009F30D700210068080800D6009F30D70014
:101F120021006C080800C930D6009F30D70021008C
:101F220067080800D130D6009F30D70021006E0824
:101F32000800EF00D130D6009F30D7006D08D800DE
:101F42003B30D9010800A1000130A2000334D8308F
:101F5200D6009F30D7007C08D8003B30D90108005A
:101F6200A1000130A200053420003B30A001A00AEC
:101F72000800D700210058082000D800C830D90135
:101F8200A001A1004230A2000630F1002100580851
:101F92000800860002308700403F2000A300413F36
:101FA200A400423FA50008006E08023AD130D600D4
:101FB2009F30D70008002008DA002108DB00220841
:101FC200DC003B347C08D8003B30D90108006D08A6
:101FD200D8003B30D90108006E08023AD830D6004A
:101FE2009F30D7000800F300F20171087318F2075E
:101FF200F135F336F308031DF62F7208080000349A
:10200200003400340034003400340034003400342E
:10201200003400340034003400340034003400341E
:10202200003400340034F834003400340034003416
:10203200003400340034333430340034003400349B
:10204200003410340C34063410340C3406340034AA
:1020520000340034003400340034003400340034DE
:102062004034C03478344034C0347834403400349E
:1020720004343F34043404343F340434043400342C
:10208200003470348834FC34083430340034003482
:10209200003418342034FF3421341E340034003428
:1020A200F0340834F0340034E034183400340034AE
:1020B200003421341C3403341E3421341E340034E1
:1020C2000034F0340834883470340034003400347E
:1020D2001E34213423342434193427342134103467
:1020E200103416340E34003400340034003400341A
:1020F200003400340034003400340034003400343E
:10210200003400340034E03418340434023400342F
:10211200003400340034073418342034403400349E
:102122000034023404341834E0340034003400340F
:10213200003440342034183407340034003400347E
:10214200403440348034F0348034403440340034FD
:102152000234023401340F340134023402340034C4
:10216200003400340034F0340034003400340034DD
:102172000134013401341F34013401340134003498
:1021820000340034003400340034003400340034AD
:102192008034B034703400340034003400340034FD
:1021A200003400340034003400340034003400348D
:1021B2000034013401340134013401340134013476
:1021C200003400340034003400340034003400346D
:1021D20000343034303400340034003400340034FD
:1021E2000034003400340034803460341834043451
:1021F20000346034183406340134003400340034BE
:102202000034E0341034083408341034E03400343C
:1022120000340F3410342034203410340F3400349E
:10222200003410341034F8340034003400340034F4
:102232000034203420343F3420342034003400343D
:10224200003470340834083408348834703400346C
:1022520000343034283424342234213430340034ED
:10226200003430340834883488344834303400340C
:102272000034183420342034203411340E34003425
:1022820000340034C03420341034F83400340034C4
:10229200003407340434243424343F3424340034E6
:1022A2000034F8340834883488340834083400346C
:1022B2000034193421342034203411340E340034E3
:1022C2000034E03410348834883418340034003454
:1022D20000340F3411342034203411340E340034DD
:1022E2000034383408340834C834383408340034FC
:1022F2000034003400343F340034003400340034FD
:10230200003470348834083408348834703400342B
:1023120000341C3422342134213422341C3400345D
:102322000034E0341034083408341034E03400341B
:102332000034003431342234223411340F34003466
:10234200003400340034C034C0340034003400346B
:10235200003400340034303430340034003400347B
:10236200003400340034803400340034003400344B
:1023720000340034803460340034003400340034DB
:1023820000340034803440342034103408340034B3
:10239200003401340234043408341034203400345C
:1023A20040344034403440344034403440340034CB
:1023B200043404340434043404340434043400345F
:1023C2000034083410342034403480340034003473
:1023D200003420341034083404340234013400341C
:1023E200003470344834083408340834F03400348B
:1023F20000340034003430343634013400340034D4
:10240200C0343034C8342834E8341034E034003472
:102412000734183427342434233414340B3400346E
:1024220000340034C0343834E03400340034003432
:1024320020343C34233402340234273438342034F8
:102442000834F834883488348834703400340034E2
:1024520020343F3420342034203411340E340034FC
:10246200C034303408340834083408343834003482
:102472000734183420342034203410340834003423
:102482000834F8340834083408341034E0340034A2
:1024920020343F3420342034203410340F340034BC
:1024A2000834F83488348834E8340834103400347A
:1024B20020343F3420342034233420341834003480
:1024C2000834F83488348834E8340834103400345A
:1024D20020343F34203400340334003400340034D8
:1024E200C03430340834083408343834003400340A
:1024F200073418342034203422341E340234003499
:102502000834F8340834003400340834F834083419
:1025120020343F3421340134013421343F34203417
:10252200003408340834F8340834083400340034F1
:102532000034203420343F3420342034003400343A
:102542000034003408340834F834083408340034D1
:10255200C0348034803480347F340034003400341A
:102562000834F8348834C034283418340834003439
:1025720020343F34203401342634383420340034BB
:102582000834F834083400340034003400340034A1
:1025920020343F342034203420342034303400348A
:1025A2000834F834F8340034F834F8340834003499
:1025B20020343F3400343F3400343F34203400347C
:1025C2000834F8343034C03400340834F834083471
:1025D20020343F3420340034073418343F3400347C
:1025E200E03410340834083408341034E034003451
:1025F2000F34103420342034203410340F3400349B
:102602000834F8340834083408340834F034003418
:1026120020343F3421340134013401340034003495
:10262200E03410340834083408341034E034003410
:102632000F34183424342434383450344F340034B2
:102642000834F83488348834883488347034003458
:1026520020343F342034003403340C3430342034FA
:102662000034703488340834083408343834003480
:102672000034383420342134213422341C340034E0
:10268200183408340834F834083408341834003460
:102692000034003420343F34203400340034003419
:1026A2000834F8340834003400340834F834083478
:1026B20000341F3420342034203420341F340034BA
:1026C20008347834883400340034C8343834083458
:1026D20000340034073438340E340134003400340A
:1026E200F83408340034F83400340834F834003450
:1026F20003343C340734003407343C3403340034AC
:102702000834183468348034803468341834083417
:10271200203430342C34033403342C343034203419
:1027220008343834C8340034C834383408340034F7
:102732000034003420343F34203400340034003478
:102742001034083408340834C834383408340034B7
:1027520020343834263421342034203418340034E0
:10276200003400340034FE340234023402340034C3
:102772000034003400347F34403440344034003478
:1027820000340C343034C0340034003400340034AB
:10279200003400340034013406343834C034003498
:1027A2000034023402340234FE3400340034003483
:1027B20000344034403440347F3400340034003438
:1027C2000034003404340234023402340434003459
:1027D2000034003400340034003400340034003457
:1027E2000034003400340034003400340034003447
:1027F2008034803480348034803480348034803437
:10280200003402340234043400340034003400341E
:102812000034003400340034003400340034003416
:102822000034003480348034803480340034003406
:102832000034193424342234223422343F342034F4
:102842000834F834003480348034003400340034E6
:1028520000343F3411342034203411340E34003427
:102862000034003400348034803480340034003446
:1028720000340E3411342034203420341134003426
:10288200003400340034803480348834F834003426
:1028920000340E3411342034203410343F342034C8
:1028A2000034003480348034803480340034003486
:1028B20000341F34223422342234223413340034BC
:1028C200003480348034F0348834883488341834C6
:1028D2000034203420343F34203420340034003497
:1028E20000340034803480348034803480340034C6
:1028F20000346B349434943494349334603400341C
:102902000834F834003480348034803400340034A5
:1029120020343F3421340034003420343F34203416
:102922000034803498349834003400340034003455
:102932000034203420343F34203420340034003436
:102942000034003400348034983498340034003435
:102952000034C0348034803480347F340034003416
:102962000834F83400340034803480348034003445
:1029720020343F34243402342D34303420340034B3
:10298200003408340834F83400340034003400349D
:102992000034203420343F342034203400340034D6
:1029A2008034803480348034803480348034003405
:1029B20020343F34203400343F34203400343F3458
:1029C20080348034003480348034803400340034E5
:1029D20020343F3421340034003420343F34203456
:1029E2000034003480348034803480340034003445
:1029F20000341F3420342034203420341F34003477
:102A02008034803400348034803400340034003424
:102A12008034FF34A1342034203411340E34003495
:102A22000034003400348034803480348034003404
:102A320000340E34113420342034A034FF34803476
:102A420080348034803400348034803480340034E4
:102A5200203420343F342134203400340134003413
:102A62000034003480348034803480348034003444
:102A720000343334243424342434243419340034D8
:102A8200003480348034E0348034803400340034C4
:102A92000034003400341F34203420340034003435
:102AA2008034803400340034003480348034003484
:102AB20000341F3420342034203410343F34203486
:102AC2008034803480340034003480348034803464
:102AD200003401340E343034083406340134003406
:102AE2008034803400348034003480348034803444
:102AF2000F3430340C3403340C3430340F3400349B
:102B020000348034803400348034803480340034A3
:102B12000034203431342E340E3431342034003435
:102B22008034803480340034003480348034803403
:102B3200803481348E3470341834063401340034D5
:102B420000348034803480348034803480340034E3
:102B52000034213430342C342234213430340034E3
:102B6200003400340034003480347C3402340234C3
:102B7200003400340034003400343F3440344034F4
:102B82000034003400340034FF34003400340034A4
:102B92000034003400340034FF3400340034003494
:102BA2000034023402347C34803400340034003483
:102BB2000034403440343F340034003400340034B4
:102BC200003406340134013402340234043404344F
:102BD2000034003400340034003400340034003453
:102BE2000034C134813440340134C034803441343F
:102BF2000134C034803441340034C134813440342F
:102C02000134C034803441340034C134813440341E
:102C12000034C134813440340134C034803441340E
:102C22000134C034803441340034C13481344034FE
:102C32000034C134813440340134C03480344134EE
:102C42000034C134813440340134C03480344134DE
:102C52000134C034803441340034C13481344034CE
:102C62000134C034803441340034C13481344034BE
:102C72000034C134813440340134C03480344134AE
:102C82000034C134813440340134C034803441349E
:102C92000134C034803441340034C134813440348E
:102CA2000034C134813440340134C034803441347E
:102CB2000134C034803441340034C134813440346E
:102CC2000134C034803441340034C134813440345E
:102CD2000034C134813440340134C034803441344E
:102CE2000134C034803441340034C134813440343E
:102CF2000034C134813440340134C034803441342E
:102D02000034C134813440340134C034803441341D
:102D12000134C034803441340034C134813440340D
:102D22000034C134813440340134C03480344134FD
:102D32000134C034803441340034C13481344034ED
:102D42000134C034803441340034C13481344034DD
:102D52000034C134813440340134C03480344134CD
:102D62000034C134813440340134C03480344134BD
:102D72000134C034803441340034C13481344034AD
:102D82000134C034803441340034C134813440349D
:102D92000034C134813440340134C034803441348D
:102DA2000134C034803441340034C134813440347D
:102DB2000034C134813440340134C034803441346D
:102DC2000034C134813440340134C034803441345D
:102DD2000134C034803441340034C134813440344D
:102DE2000034C034C1340134C33403340234C23435
:102DF200C63406340734C7340534C534C434043405
:102E0200CC340C340D34CD340F34CF34CE340E34B4
:102E12000A34CA34CB340B34C93409340834C834C4
:102E2200D83418341934D9341B34DB34DA341A3434
:102E32001E34DE34DF341F34DD341D341C34DC3404
:102E42001434D434D5341534D73417341634D63434
:102E5200D23412341334D3341134D134D034103444
:102E6200F03430343134F1343334F334F234323434
:102E72003634F634F7343734F53435343434F43404
:102E82003C34FC34FD343D34FF343F343E34FE34B4
:102E9200FA343A343B34FB343934F934F8343834C4
:102EA2002834E834E9342934EB342B342A34EA3434
:102EB200EE342E342F34EF342D34ED34EC342C3404
:102EC200E43424342534E5342734E734E634263434
:102ED2002234E234E3342334E13421342034E03444
:102EE200A03460346134A1346334A334A234623434
:102EF2006634A634A7346734A53465346434A43404
:102F02006C34AC34AD346D34AF346F346E34AE34B3
:102F1200AA346A346B34AB346934A934A8346834C3
:102F22007834B834B9347934BB347B347A34BA3433
:102F3200BE347E347F34BF347D34BD34BC347C3403
:102F4200B43474347534B5347734B734B634763433
:102F52007234B234B3347334B13471347034B03443
:102F62005034903491345134933453345234923433
:102F72009634563457349734553495349434543403
:102F82009C345C345D349D345F349F349E345E34B3
:102F92005A349A349B345B349934593458349834C3
:102FA20088344834493489344B348B348A344A3433
:102FB2004E348E348F344F348D344D344C348C3403
:102FC2004434843485344534873447344634863433
:102FD2008234423443348334413481348034403443
:102FE200003480343F34CD34CC343D34D7342334B0
:102FF2003C34123483343A34B734D1343834C6349E
:1030020027343734383486343534C034D634333404
:10301200CC342B343234703489343034E734DB34FA
:103022002E34E5343C341E344234A2340D340034A0
:1030320080343F340034203441340034C8344234C4
:1030420000347A34443440341C3446345034C3346B
:103052004734243474344934973418344B34BC34F0
:10306200BE344C346B346E344E3403341534503425
:103072007934AD346034F33449347134013400347A
:10308200003400341034003400340034003401348D
:10309200003400340034103400340034003400347E
:1030A200013400340034003410340034003400346D
:1030B200003401340034003400341034FF3401345D
:1030C2000134013401340134013401340134013456
:1030D2000134013401340134813441342134113456
:1030E20009340534FF34013401340134013401342C
:1030F20001340134013401340134013421342134E6
:10310200A9346D342B3439342934A93429346D343B
:10311200B9342134213401340134953459343134F1
:10312200FF34313459349534813461349F3411344D
:10313200F13411340134013441344334CD34013497
:10314200813441343D340534053405343D34413451
:1031520041340134013401345F34533453345F3425
:103162005334F33453345F34533453345F340134BF
:1031720001340134013401340134013401340134A5
:103182000134FF340534093411342134413481349B
:103192000134013401340134013401340134013485
:1031A2000134013401340134013401340134013475
:1031B20001340134013401340134FF34FF348034EA
:1031C200803480348034803480348034803480345D
:1031D2008034803480348034803481348234843446
:1031E20088349034BF3480348034803480348034E6
:1031F200803480348034803480348034C134D1349B
:10320200D234D234CA34A934A934A4349234903496
:1032120088348134813480348034C234CA34AF3447
:10322200B2349234AE34C0348034C034A7349834CB
:10323200A734C0348034803480348034BF34903436
:10324200C834C134A734A9349134A934A534C33461
:10325200C03480348034C034C034FF34C134C1340B
:10326200C134F934C134C134C134FF34C034C03440
:1032720080348034803480348034803480348034AC
:103282008034BF349034883484348234813480343E
:10329200803480348034803480348034803480348C
:1032A200803480348034803480348034803480347C
:1032B20080348034803480348034FF34FF340134ED
:1032C2000134013401340134013401340134013454
:1032D2000134013401340134013481344134213464
:1032E20011340934FD340134013401340134013420
:1032F2000134013401340134013481348534993488
:103302000134413445344534C534453445344534BB
:10331200413441340134013411348934C5343334F5
:1033220001344134453445344534C534453445349B
:10333200413401340134093431340134FF3401346D
:10334200213421342134FF342134253429342134E9
:103352000134013409340934893489344934A934B3
:103362001F34293449348934893409340934013405
:1033720001340134013401340134013401340134A3
:103382000134FD340934113421344134813401349F
:103392000134013401340134013401340134013483
:1033A2000134013401340134013401340134013473
:1033B20001340134013401340134FF34FF348034E8
:1033C200803480348034803480348034803480345B
:1033D200803480348034803481348234843488343C
:1033E2009034A034FF34803480348034803480348C
:1033F20080348034803480348034C034A0349F34AC
:10340200A034C834CC34CA34C934C834CA34CC34F5
:10341200D834C0348034803481348034FF348034F2
:10342200803480348034C034C034FF3480348034FB
:10343200803480348034843482348134FF34C03424
:10344200A03498348734803487349834A034C0341C
:1034520080348034C134B1348034B834C034C034A0
:10346200C534D834C034E03480348934B134803443
:1034720080348034803480348034803480348034AA
:103482008034FF34A03490348834843482348134DC
:10349200803480348034803480348034803480348A
:1034A200803480348034803480348034803480347A
:1034B20080348034803480348034FF3401340034EA
:1034C200003400340A3400340034003464340034EC
:1034D20000340034E8340334003400341034273428
:1034E20000340034A0348634013400344034423491
:1034F2000F34003480349634983400340034E1348C
:10350200F53405340034CA349A343B340034003480
:103512000034003400340034003400340034003409
:1035220000340034003400340034003400340034F9
:10353200363436340034003400340034003400347D
:103542000034003400340034003400341034603469
:103552000234CC3480348034FC3440342034FF34A0
:1035620010340834F83400340034003404340434A1
:103572007E340134003400343F34403440344F341C
:10358200403444344734403478340034043404340E
:103592008434C434A4349C348534863484348434EE
:1035A200A434C43484340434043400340034803405
:1035B2008034403430340F340034003400347F34EB
:1035C200803480348134F0340034003400340034E8
:1035D2007C344034403440344034FF34403440344E
:1035E20040344034FC3400340034003400347C3441
:1035F200403440344034403440347F3440344034EA
:10360200403440344034FC34003400340834043450
:103612009334923496349A349234FA349434933400
:1036220092349634FA340234023400344034403452
:1036320047342434243414340C34FF340434043432
:103642002434443424341C34003400340034003430
:10365200F8348834883488348834FF3488348834A1
:1036620088348834F83400340034003400340034B0
:103672001F3408340834083408347F3488348834DA
:10368200883488349F348034F03400340034003479
:10369200FE34223422342134013440343E340234A4
:1036A200023402341E3420342034003410341034F6
:1036B200FF341134093409348034813447342934D5
:1036C20011342934453483348034003400340034D6
:1036D2000834083408340834083408340834083408
:1036E2000834083408340034003400341034103400
:1036F20010341034103410341034103410341034A8
:1037020010341034103410341034003400342034A7
:103712001034E834243427342434A43424343434A4
:103722002C34E0340034003400340034003480346B
:1037320080344F3440342034183407341034103479
:1037420020344F3480340034003400340034803468
:103752006034F83407342034203420342034FF34E9
:10376200203422342C342034203400340134003408
:103772000034FF34803440342034183407340034A9
:103782000734183420344034803400340034043494
:1037920004340434043404340434FC34043404346F
:1037A2000434043404340434003400342034203427
:1037B200203420342034203420343F342034203448
:1037C2002034203420342034203400344034403437
:1037D200423444345834C03440347F344034C034EA
:1037E20050344834463440344034003480348034D9
:1037F20040342034183407340034003400343F3469
:103802004034403440344034783400340034F834A6
:10381200013406340034F034123412341234F234E7
:10382200023402340234FE34003400340034FF34F3
:103832000034003400341F341134113411341F3475
:103842000034403480347F34003400340034FE3499
:1038520002342234DA3406344034203490340C34C6
:1038620003340C3490342034403400340034FF34B8
:103872000834103408340734803460341F34003480
:1038820000340034FF340034003400341034103477
:103892001034FF34903420349834483428340934B6
:1038A2000E3428344834A8341834003402344234F4
:1038B20081347F3400344034403442344234423420
:1038C2007E344234423442344034003400341034C2
:1038D20010349234543430341034FF3410343034D1
:1038E2005434923410341034003400348434853427
:1038F20045344434243414340C3406340C34143433
:1039020024344434453484348434003410346034F0
:1039120002348C3400344434643454344D344634E8
:10392200443454346434C434043400340434043429
:103932007E340134803440343E3400340034FE346A
:10394200003400347E348034E034003410341034D7
:10395200D034FF3490341434E434AF34A434A43477
:10396200A434AF34E4340434003400340434033473
:103972000034FF34003489344B342A341A340E3480
:103982001A342A344B3488348034003400340434FA
:103992008434843484348434843484348434843465
:1039A20084348434843404340034003420342034A5
:1039B2002034203420342034203420342034203465
:1039C2002034203420342034203400340034FC34B9
:1039D200843484348434FC3400341034103410348D
:1039E20010341034FF3410341034003400343F34B7
:1039F2001034103410343F340034003401340634AF
:103A0200403480347F3400340034003410341034B5
:103A12009034903490349034903410341034FF3415
:103A2200103410341134163410340034003420347D
:103A3200603420343F3410341034103400340334F2
:103A42000C34103420344034F83400348834683470
:103A52001F34C83408341034C83454345234D13486
:103A6200123494340834D034103400340934193404
:103A72000934FF3405340034FF3412349234FF34F5
:103A820000345F3480347F34003400340034FC343A
:103A9200043404340434FC34043404340434FC3474
:103AA200043404340434FC340034003400347F34ED
:103AB2002834243423342034203420342034213454
:103AC2002234223422347F3400340034003402346D
:103AD200423442344234C2347E3442344234423478
:103AE2004234C234023402340034003440344034AC
:103AF20040344034783447344034403440344034E5
:103B020040347F3440344034403400342034223452
:103B1200A2347E3422342234FE342234223400345D
:103B22007C3400340034FF340034003444344234F2
:103B3200493448344834483449347E34483448346B
:103B4200483449344A344134403400340034003477
:103B5200FE3402348234823482348234FA3482343F
:103B620082348234823482340234003480346034C9
:103B72001F34403440344034403440347F34403485
:103B82004034443458344034403400348034803437
:103B92008034803480348034803480348034803483
:103BA20080348034803480348034003400340034F3
:103BB2000034003400340034003400340034003463
:103BC200003400340034003400340034903494342F
:103BD2009434F4349F349434943494341034103440
:103BE200FF3410341234D4341034003420342634E8
:103BF20025342434FE3414341434143480344034E0
:103C02002734183426344134F034003400348034FC
:103C12006034F8340734403430340F34F8348834A4
:103C22008834883488340834083400340134003449
:103C32000034FF340034003400340034FF340834DC
:103C420008340834083408340034003400340034B2
:103C52000034003400340034003400340034303492
:103C62003034003400340034003400340034003482
:103C720010341034F834003400340034003400348A
:103C8200203420343F342034203400340034703463
:103C92000834083408340834F03400340034303442
:103CA2002834243422342134303400340034303483
:103CB200083408340834883470340034003418343A
:103CC20020342134213422341C34003400340034B2
:103CD200803440343034F834003400340034063454
:103CE2000534243424343F34243424340034F83466
:103CF2008834883488340834083400340034193461
:103D020020342034203411340E3400340034E034B2
:103D120010348834883490340034003400340F3442
:103D220011342034203420341F3400340034183449
:103D320008340834883468341834003400340034C9
:103D420000343E3401340034003400340034703422
:103D520088340834083488347034003400341C3415
:103D620022342134213422341C3400340034F0341F
:103D72000834083408341034E03400340034013498
:103D820012342234223411340F3400344234543485
:103D92005F3425343034323464345F34483456343A
:103DA2002D343E34253435342E3432346634563490
:103DB2000A340034423454345F34253430343234DB
:103DC20064345F344C3456342D343E342534353427
:103DD2002E343234663456340A34003430343134BA
:103DE2003234333434343534363437343834393485
:103DF20061346234633464346534663400342034AC
:103E02003C343C344134753474346F3420346D3472
:103E12006F346434653421343E343E34203400340B
:103E22002E342E3464346934733463346834613428
:103E32007234673469346E34673421342E342E344C
:103E420000342E342E342E342E34633468346134EC
:103E52007234673469346E34673421342E342E342C
:103E62002E3400342E342E342E3443345234433420
:103E720020346534723472346F34723421342E3407
:103E82002E342E3400342E342E342E3453346534F2
:103E9200743420346534723472346F3472342134A1
:103EA2002E342E342E3400342E342E342E342E342E
:103EB200533461347634653420344F344B342134F6
:103EC2002E342E342E342E3400342E342E342E340E
:103ED2002E3477346F3472346B3469346E34673411
:103EE20021342E342E342E342E3400343C343C34DF
:103EF200483461346E3464346C34653420346D3447
:103F02006F346434653421343E343E340034393401
:103F12002E3454345F34613464343D3425343034C7
:103F2200343464340A34003437342E3449345F3440
:103F320069346E343D3425343034343464340A34D4
:103F4200003438342E3449345F346F3475343D34A0
:103F520025343034343464340A3400342034253483
:103F6200303432347834203441340A34003420344A
:103F72002534303432347834203448340A3400342E
:103F8200253435342E343234663441340A34003424
:103F92002534323464346D3469346E340A34003476
:103FA200253433346434253425340A34003425343A
:083FB200323464340A34003497
:10402E002100C4005830B000B626A031C3080319D1
:10403E00B32D4308253A03192C2844088600013075
:10404E00870043088100C40A1B28BB01BC01B901CB
:10405E00BA013728210039152000D60A0319D70ACC
:10406E0020002727A031303A031931283E28272770
:10407E00A0315B26A031031C7A282100BB01BC01B4
:10408E000A302000A400A50121003C082000A70052
:10409E0021003B082000A600BE313D26A031250898
:1040AE002100BC00200024082100BB00200027278F
:1040BE00A031D03EDD00FF3003180030DE005D0879
:1040CE002100BB0720005E082100BC3D2000D60A5F
:1040DE000319D70A560884005708850000085B2686
:1040EE00A031031847285608840057088500000899
:1040FE002E3A031DBB2821003A172000D60A0319B9
:10410E00D70A2100BD01BE0120002727A0315B2662
:10411E00A031031C0F29560884005708850000089B
:10412E00DD00DE0121003E082000A50021003D0833
:10413E002000A4000A30A600A701BE313D26A03102
:10414E005D082407DF005E08253DE0005F08D03ED5
:10415E002100BD00FF302000603D2100BE00200088
:10416E00D60A0319D70A8B282100BD01BE013A16C3
:10417E000F293A152129B91721293E083D040319A3
:10418E00D42841083E02031DCE2840083D020318E4
:10419E00D4283E08C1003D08C0003C084102031D62
:1041AE00DA283B0840020318E1284008BB02410808
:1041BE00BC3BE328BB01BC01FF30BB07031CBC03A7
:1041CE003B0A03193C0A0319FF28440886000130F4
:1041DE00870020308100C40AE3284408860001309D
:1041EE0087003F088400850100088100BF0AC40AC9
:1041FE000130C0020030C13B400A0319410A0319C5
:10420E001B28F428C330BF00C001C00AC101C42856
:10421E00B626A031003A0319B32D643A03192129A9
:10422E00023A0319C0280F3A03192129113A03192A
:10423E00C228092920000730DD0121003A0520009F
:10424E00DE005D040319442C21003A1E312906308C
:10425E00BD00BE01300886008701403FB600413FD9
:10426E00B700423FB8000330B0073608F1003708F8
:10427E00F2003808F300F401F501F601B925A0317A
:10428E0003185A2921003608F1003708F2003808C1
:10429E00F3006926A0317108B6007208B7007308E2
:1042AE00B8000330B9042100B401B5013808370451
:1042BE0036040319E829B630F726A031423FDF0055
:1042CE00433FE0000F30E036DF0CDE0CDD0C890BD7
:1042DE006A295E082100B50020005D082100B400A7
:1042EE008230B501B407031CB503FF30B407031CBD
:1042FE00B50303302000A400A501210035082000DD
:10430E00A700210034082000A600BE313D26A031B2
:10431E0025082100B500200024082100B4000A3031
:10432E00F700F8013508FA003408F900BE315226BC
:10433E00A03178082100B5007708B400B51FAB296D
:10434E00FF30B407031CB5033403FF3ABD317125AA
:10435E00A031DB26A031FF26210031082000AD0060
:10436E00210032082000AE00210033082000AF00EB
:10437E00BE31CC26A0312A082100B10020002B0826
:10438E002100B20020002C082100B3002027873125
:10439E006827A031B925A0310318DB29FF30210091
:1043AE00B407031CB503E8292100202787316227B3
:1043BE00A031B925A031031CE8292100B40A031944
:1043CE00B50A21005127A031031DEF290D303D0202
:1043DE000318162A21003D08BC31E524A031390806
:1043EE00C4003A08C5003B08C6002100360820006C
:1043FE00C700210037082000C8002100380820001F
:10440E00C900A8315520A03144082100B600200073
:10441E0045082100B700200046082100B800210001
:10442E004B27A031031D1D2A0A3034020318392AE6
:10443E0021003808370436040319752A3608152763
:10444E00BB319823A0314408430442044104031DA8
:10445E00752A21004B27A031031D372A0230340262
:10446E00031C752A21002027A0317030F4008930FA
:10447E00F5004030F600B925A0310318482AF73070
:10448E00492AF8302100B407031CB5033408BD31A6
:10449E007125A031DB26A031F1003708F200380873
:1044AE00F3003108F4003208F5003308F6009027C7
:1044BE00A03174082100A6007308A5007208A4009C
:1044CE007108A3002608C2002508C1002408C000F8
:1044DE002308BF00B601B701B801B12A2100360882
:1044EE001527BB319823A031CD26A0312100BF0066
:1044FE0042082000A300210041082000A200210054
:10450E0040082000A10021003F082000A0007227D3
:10451E00A0312008D0002108D1002208D2002100AD
:10452E0036082000D300210037082000D4002100D7
:10453E0038082000D5005B27A03150082100B600B6
:10454E00200051082100B700200052082100B800B9
:10455E00B401B501C301C30A43080A3A0319D02AAC
:10456E0043087126A031AC26A031031DCE2A2000AF
:10457E00610821004102031DCE2A2000600821009F
:10458E004002031DCE2A20005F0821003F020318BF
:10459E00B22A4308E826A0313D0820005D07DF005F
:1045AE0021003E0820005E3DE0002100340820007E
:1045BE005F07E100210035082000603DE200610840
:1045CE002100BB02200062082100BC3B3E083D04D6
:1045DE000319F52AFF30BB07031CBC033908033946
:1045EE000319FD2AFF30BB07031CBC03391D202B0A
:1045FE00390803390319062B44083D27A0313C081E
:10460E00803AFF0080307F02031D0F2B01303B02EA
:10461E00031C6E2B21004408C526A031BB07031CCA
:10462E00BC03062B2100440886002D27A031031C55
:10463E00BC033C08803AFF0080307F02031D292B0B
:10464E0001303B020318192B2100390803390319D5
:10465E006E2B44085727A0316C2B43087126A031CE
:10466E009226A031E525A03174082100AB00730815
:10467E00AA007208A9007108A800EF26A0312B0825
:10468E002000AC0021002A082000AB0021002908E0
:10469E002000AA00210028082000A9002526A0310C
:1046AE0028082100AB00200027082100AA002000C6
:1046BE0026082100A900200025082100A800440892
:1046CE008600013087002808303E8100C40A210090
:1046DE00C303430F342B3508803AFF0080307F022E
:1046EE00031D7B2B01303402031C852B2100440853
:1046FE00C526A031B407031CB503722B2100512728
:10470E00A031031D8C2B09303D02031C912B083068
:10471E002100932B21003D08C300E826A031BD02E5
:10472E0020005E082100BE3B43080319A52B440858
:10473E008600013087002E308100C40A4308BD3147
:10474E007125A03139082100A00020003A0821006F
:10475E00A10020003B082100A20020082000AD008F
:10476E00210021082000AE00210022082000AF0009
:10477E0021003608FF26BE31CC26A0312A08C10002
:10478E002B08C2002C08C300BB319823A031CD26C4
:10479E00A031342C43087126A0319226A031E52594
:1047AE00A03174082100AF007308AE007208AD008E
:1047BE007108AC00EF26A0312F082000AC002100BC
:1047CE002E082000AB0021002D082000AA00210099
:1047DE002C082000A9002526A03128082100AF00B2
:1047EE00200027082100AE00200026082100AD0081
:1047FE00200025082100AC00440886000130870007
:10480E002C08303E8100C40A43087126A031A50051
:10481E00013FA600023FA700033FA8002100420867
:10482E002000AC00210041082000AB002100400810
:10483E002000AA0021003F082000A9002526A03153
:10484E0028082100C200200027082100C1002000F6
:10485E0026082100C000200025082100BF00C30348
:10486E00430FD12B3E083D0403191B284408C526CF
:10487E00A031BD07031CBE03392C2100B91B642CCB
:10488E003008F726A0314427A031C000890D893B9E
:10489E008909C100C200B00AB00AC21F6E2C0330D3
:1048AE00B904BF09C009C109C209BF0A0319C00A68
:1048BE000319C10A0319C20A6E2C3008F726A0315B
:1048CE004427A031C000C101C201B00AB00A3E089F
:1048DE003D04031DC42C4208410440043F04031D43
:1048EE00C42CBD0A0319BE0AC42CC301C30A430853
:1048FE000A3A0319CC2C43087126A031AC26A031FC
:10490E00031D992C2000610821004102031D992CE2
:10491E002000600821004002031D992C20005F0832
:10492E0021003F02031CCC2C7D2CC301C30A43087B
:10493E00083A0319CC2C43082000DD003F30DE017D
:10494E008026A03198305E3D8500003FAC26A03118
:10495E00031DC12C2000610821004102031DC12C42
:10496E002000600821004002031DC12C20005F08BA
:10497E0021003F02031CCC2C9D2C390880390319D1
:10498E007C2C803A03199C2CCC2C0A27A0313E0893
:10499E00803A20005F02031DD82C21003D08200024
:1049AE005D020318DE2C21003D08C300F62C210009
:1049BE004308E826A0313E08803A2000DF005E085A
:1049CE00803A5F02031DEE2C5D0821003D020318A4
:1049DE00F62C21004308BD00BE01BD1BBE03210005
:1049EE003C083B040319032D390803390319032D21
:1049FE00FF30BB07031CBC033A1F1E2D3E08803A36
:104A0E002000DD0021003C08803A20005D02031DDD
:104A1E00132D21003B083D0203181B2D21003D08DC
:104A2E00BB023E08BC3B1E2D2100BB01BC010A2768
:104A3E00A0313C08803A20005F02031D2A2D210080
:104A4E003B0820005D020318362D21004308E8269E
:104A5E00A031BB0220005E082100BC3B392D210095
:104A6E00BB01BC01391D4D2D390803390319422DE7
:104A7E0044083D27A0313C083B040319A12D4408EE
:104A8E00C526A031BB07031CBC03422D3C083B04CA
:104A9E0003195B2D440886002D27A031031CBC038F
:104AAE003C083B04031D512D390803390319A12D70
:104ABE0044085727A0319F2DEF26A0313527A0316E
:104ACE005F308026A0319A308726A0312100A326A0
:104ADE00A031E525A0317408AC007308AB00720854
:104AEE00AA007108A9002526A0312508303E210014
:104AFE00992DA326A0313527A0313F308026A03135
:104B0E0098308726A031E525A03171082100A70035
:104B1E000F30A7052708EF3E84009E300318013E94
:104B2E0085000008C3004408860001308700430852
:104B3E008100C40AFF30BD07031CBE033D0A0319E2
:104B4E003E0A03191B28390880390319632D803A50
:104B5E000319802D9A2D9A2D440886000130870066
:104B6E0081010800F31FC82D7108003CF100720886
:104B7E00031C720F003CF2007308031C730F803C81
:104B8E00F300F61FD72D7408003CF4007508031CC3
:104B9E00750F003CF5007608031C760F803CF6007E
:104BAE008030F306F60676087302031D08007508BA
:104BBE007202031D08007408710208002000A00193
:104BCE00A101A201A30174087304720471040319F4
:104BDE001C2EA401A40AF41BF92DF135F20DF30DD0
:104BEE00F40DF12DA035A10DA20DA30D74087802C0
:104BFE00031D0B2E73087702031D0B2E720876020F
:104C0E00031D0B2E71087502031C162E7108F5027A
:104C1E007208F63B7308F73B7408F83B2014F43621
:104C2E00F30CF20CF10CA40BF92D2308F40022085E
:104C3E00F3002108F2002008F100080028082704DC
:104C4E00260425040319522EF901F90AA81B342E45
:104C5E00A535A60DA70DA80D2C2E28082C02031D78
:104C6E00422E27082B02031D422E26082A02031D60
:104C7E00422E25082902031C4C2E2508A9022608BF
:104C8E00AA3B2708AB3B2808AC3BA836A70CA60CC2
:104C9E00A50CF90B342E2C08A8002B08A7002A0807
:104CAE00A6002908A5000800F2003A30F1017202B0
:104CBE000318672E30307202031C672EF101F10AC1
:104CCE00710C080073087204710403190800803017
:104CDE00F30608002000DD005F30DE01DD35DE0D5D
:104CEE00DD35DE0D5D0784009A305E3D8500003FA8
:104CFE000800DD35DE0DDD35DE0D5D0784000800B4
:104D0E005E3D8500003FF100013FF200023FF300DF
:104D1E00033FF4000800F100013FF200023FF300F0
:104D2E00033FF40021004208F8004108F700400854
:104D3E00F6003F08F50008004208F8004108F700A9
:104D4E004008F6003F08F5000800DF00013FE000D4
:104D5E00023FE100033FE200210042020800200072
:104D6E005708DE005608DD00D60A0319D70A84005C
:104D7E005E08850000082100C3000800860001308F
:104D8E00870030308100FF30C40A0800440821003B
:104D9E00C200200043082100C1002000420821006B
:104DAE00C00020004108080039082100B100200091
:104DBE003A082100B20020003B082100B30036085B
:104DCE0008002000DD00DE01DD1BDE0321000800EF
:104DDE000A302000A500A601A701A80121000800A5
:104DEE0086008701403F2000DD00413FDE000800C5
:104DFE002000AA00210037082000AB00210038084F
:104E0E002000AC00080043082000DD00DE01DD1BA1
:104E1E00DE035E08803ADF00210008002000C1009A
:104E2E00210037082000C200210038082000C300EE
:104E3E0008003108F1003208F2003308F3000800D0
:104E4E0056088400570885000008080001308700C6
:104E5E0020308100FF30C40ABB0708003E08200046
:104E6E00DE0021003D082000DD0008008600013034
:104E7E0087002D308100C40A08005D082100BF00A4
:104E8E0020005E08210008003508803AFF008030BF
:104E9E007F0208003E08803AFF0080307F02080043
:104EAE008600013087002D348030D2065308C400AE
:104EBE005408C5005508C6005008C7005108C80060
:104ECE005208C900A83155204408D0004508D10029
:104EDE004608D20008008E30F900FF302305031972
:104EEE007E2FA336A20CA10CA00CF90A742F200859
:104EFE00F1002108F2002208F3007908F400F50110
:104F0E00AF315B277108A0007208A1007308A200E0
:104F1E0008007108F7007208F8007308F900031012
:104F2E00780D790D2000A500A508031DA32FF10112
:104F3E00F201F301F40108007408F7007508F80097
:104F4E007608F9000310780D790DA400A408031952
:104F5E009E2F7F30F217F301F517F601A001A10184
:104F6E00A201A301A50298302407F700A50218306C
:104F7E00A400A035A10DA20DA30D76087302031D8A
:104F8E00CE2F75087202031DCE2F74087102031CFA
:104F9E00D72F7408F1027508F23B7608F33B201404
:104FAE00F135F20DF30DA40BC02FA51FEA2F250826
:104FBE00803A973E031C9E2FA336A20CA10CA00C88
:104FCE00A50FE32FF72F1830250203189E2FA508E3
:104FDE000319F72FA035A10DA20DA30DA503EE2FDA
:104FEE002308F4002208F3002108F2002008F10043
:024FFE000800A9
:1050A80009294408CA004508CB004608CC0003106B
:1050B8004B0D4C0DCF004708CA004808CB004908E3
:1050C800CC0003104B0D4C0DCE004F080319782867
:1050D8004E084F024E0803188028CA004F08CA021B
:1050E80019304A02031C7F284708C4004808C50035
:1050F8004908C60008004E08031908004F084E0268
:1051080003188E284F08CA004E08CA0219304A02EE
:10511800031808000630CD00C61BCD17C91B4D1754
:10512800C517C601C817C9014E084F020318B3288E
:10513800C735C80DC90DCE034E084F060319AE2852
:10514800CD034D0807390319AE289C28C636C50C6F
:10515800C40CCF0A4F084E060319CD28AA284F08B9
:105168004E020318CD28C435C50DC60DCF034E0811
:105178004F060319C928CD034D0807390319C92853
:10518800B728C936C80CC70CCE0A4F084E06031DEF
:10519800C528CD1FD828FF30C406C506C606C40AD0
:1051A8000319C50A0319C60A4D1FE328FF30C706AD
:1051B800C806C906C70A0319C80A0319C90ACD01CE
:1051C8004408C7074508C83D4608C93DC91FF72810
:1051D800FF30C706C806C906C70A0319C80A031953
:1051E800C90ACD01CD0A4708F1004808F20049086C
:1051F800F3004F08F4004D08F5005B277108C40060
:105208007208C5007308C600080000308221A83162
:105218002000A10001308221A831D027A831D02454
:10522800A831E627A83102308221A8312000A10048
:1052380003308221A831D027A831D024A831D8271B
:10524800A83104308221A8312000A20022082100C0
:10525800E80005308221A8312000A20022082100A0
:10526800EA0006308221A8312000A200220821008D
:10527800EC0007308221A8312000A200220821007A
:10528800EE0008308221A8312000A2002208ED009B
:105298000A308221A8312000A20022082100E6005D
:1052A8000B308221A8312000A20022082100E7004B
:1052B8000C308221A8312000A20022082100E90038
:1052C8000D308221A8312000A20022082100EB0025
:1052D8000E308221A8312000A20022082100ED0012
:1052E8000F308221A8312000A20022082100EF00FF
:1052F800103082212000A200FC000800F1006400A8
:105308002300951883297108910092013F30950573
:1053180015140310151803140030093D130808006C
:105328005A08220037060319B42CC92C2400210876
:10533800B13A031DC92C2130F1000230F20032309D
:10534800F300EC24A8317208B727A8315306031DCF
:10535800B1292000350824005406031DC92C220851
:10536800FA002308F900D024A83179082200A00007
:105378007A08A1007B08A200ED27A831D024A83123
:1053880079082300A0007A08A1007B08A200240065
:105398002608FA002708F900D024A8317908230044
:1053A800D9007A08DA007B08DB0024002808FA0014
:1053B8002908F900D024A83179082300D3007A08F5
:1053C800D4007B08D50024002A08FA002B08F9002D
:1053D800D024A83179082300D6007A08D7007B08A2
:1053E800D80024002C082200B50024002D08220033
:1053F800A40024002E082200A30024002F08220065
:10540800A600240030082200A5002400310822004C
:10541800B000240032082200AF0024003308FA004C
:105428003408F900D024A83179082300A3007A08A9
:10543800A4007B08A50024003508FA003608F90006
:10544800D024A83179082300A6007A08A7007B0891
:10545800A80024003708FA003808F900D024A83139
:1054680079082300A9007A08AA007B08AB00240069
:105478003908FA003A08F900D024A831790823003D
:10548800AC007A08AD007B08AE0024003B08FA00A7
:105498003C08F900D024A83179082300AF007A0825
:1054A800B0007B08B10024003D08FA003E08F9006E
:1054B800D024A83179082300B2007A08B3007B0809
:1054C800B40024003F08FA004008F900D024A831AD
:1054D80079082300B5007A08B6007B08B7002400D5
:1054E8004108FA004208F900D024A83179082300BD
:1054F800B8007A08B9007B08BA0024004308FA000B
:105508004408F900D024A83179082300BB007A08A0
:10551800BC007B08BD0024004508FA004608F900D5
:10552800D024A83179082300BE007A08BF007B0880
:10553800C00024004708FA004808F900D024A83120
:1055480079082300C1007A08C2007B08C300240040
:105558004908FA004A08F900D024A831790823003C
:10556800C4007A08C5007B08C60024004B08FA006E
:105578004C08F900D024A83179082300C7007A081C
:10558800C8007B08C90024004D08FA004E08F9003D
:10559800D024A83179082300CA007A08CB007B08F8
:1055A800CC0024004F08FA005008F900D024A83194
:1055B80079082300CD007A08CE007B08CF002400AC
:1055C8005108FA005208F900D024A83179082300BC
:1055D800D0007A08D1007B08D20023082500A0005B
:1055E800230024082500A100230025082500A20087
:1055F800230026082500A300230027082500A4006F
:10560800230028082500A500230029082500A60056
:1056180023002A082500A70023002B082500A8003E
:1056280023002C082500A90023002D082500AA0026
:1056380023002E082500AB0023002F082500AC000E
:10564800230030082500AD00230031082500AE00F6
:10565800230032082500AF00230033082500B000DE
:10566800230034082500B100230035082500B200C6
:10567800230036082500B300230037082500B400AE
:10568800230038082500B500230039082500B60096
:1056980023003A082500B70023003B082500B8007E
:1056A80023003C082500B90023003D082500BA0066
:1056B80023003E082500BB0023003F082500BC004E
:1056C800230040082500BD00230041082500BE0036
:1056D800230042082500BF00230043082500C0001E
:1056E800230044082500C100230045082500C20006
:1056F800230046082500C300230047082500C400EE
:10570800230048082500C500230049082500C600D5
:1057180023004A082500C70023004B082500C800BD
:1057280023004C082500C90023004D082500CA00A5
:1057380023004E082500CB0023004F082500CC008D
:10574800230050082500CD00230051082500CE0075
:10575800230052082500CF001725A831C92C2400A2
:105768002108B23A031DC92C2130F1000230F200A1
:105778001130F300EC24A8317208B727A83132069B
:10578800031DCA2B2000350824003306031DC92C2D
:105798002208FA002308F900D024A831E627A83106
:1057A800ED27A831D024A831D827A831240026080D
:1057B8002100E800240027082100EA002400280826
:1057C8002100EC00240029082100EE0024002A080A
:1057D8002000ED0024002B082100E60024002C08FE
:1057E8002100E70024002D082100E90024002E08EC
:1057F8002100EB0024002F082100ED0024003008D0
:105808002100EF0024003108FC001725A831C92C1D
:1058180024002108B33A031DC92C2130CA27A83116
:10582800EC24A831A827A831031D362C2208210012
:10583800DB005B0B322C20005530A001A1009F300B
:10584800A20005308425A831F327A83139278331F0
:105858004C23A83183316523A831C92C2000F827AF
:10586800A831242C2000FC27A831242C240021084E
:10587800B43A031DC92C2130CA27A831EC24A83119
:10588800A827A831031DAE2C22082100DB005B0BE2
:10589800A82C83314C23A831E027A8318425A831CE
:1058A8002230A001A1009F30A20005308425A83134
:1058B800F327A831392783314C23A831813192212C
:1058C800A831C92C24002108B53A031DC92C213060
:1058D800CA27A831EC24A831A827A831031DAE2C6B
:1058E80022082100DB005B0BA82C83314C23A83154
:1058F800E027A8318425A8311130A001A1009F30EC
:10590800582C24002108B63A031DC92C2130CA2777
:10591800A831EC24A831A827A831031DAE2C2208F1
:105928002100DB005B0BA82C83314C23A83100300D
:10593800A001A1009F30A20001308425A831663063
:10594800A001A1009F30582C83314C23A831F8279F
:10595800A831582C83314C23A831FC27A831582C66
:1059680021005A08013A03199A29033A0319B32B5B
:10597800013A03190C2C073A03193A2C013A031976
:10598800662C033A0319852CC92C5030F101F20119
:10599800F3002030F401952F2000A001FA1FDB2C22
:1059A800F909FA09F90A0319FA0AA001A00A7908FB
:1059B800F1007A08F2008E30F301F4002008F500B7
:1059C8005B277108F9007208FA007308FB000800E9
:1059D800FF30F800F900F3037308FF3A0319112D9B
:1059E800710886007208870001087806F400F5013E
:1059F800F601F701F10A0319F20AF13E8400953025
:105A0800753D850000087906F800F13074078400B8
:105A18009630753D85000008EE2C7808F200F101FB
:105A28007908F104080022000C1432302100C80063
:105A38000800D030860002308700463084000030ED
:105A480085000E30FF0016001A00FF0B272DDE30F0
:105A580086000230870054308400003085000E3004
:105A6800FF0016001A00FF0B352DDC3086000130D0
:105A7800870062308400003085000830FF0016007F
:105A88001A00FF0B432DA030860003308700353005
:105A98008400003085001130FF0016001A00FF0B4B
:105AA800512D18142200B601B60AAB01AC01200032
:105AB8003530A001A00AA1000030A20001308425E1
:105AC800A8311130A0004630A1000030A2000330F8
:105AD8008425A8311130A0005430A1000030A20064
:105AE80005308425A8314C30A0006230A100003078
:105AF800A20007308425A8316430F100F201392F63
:105B0800AF00B4012208BE27A831003803190800E5
:105B18002208BE27A831A50020302502031C372FF4
:105B28002208BE27A831A5007F3025020318372F89
:105B38002208BE27E03EB000B2012008F9002F0875
:105B480032078231E322A8312000B1013208A300D4
:105B5800A401A335A40DA335A40DA335A40D3108C4
:105B6800A500A6013008A700F030A801A70EA80ECE
:105B7800A80527080F39A804F030A7050130A900A7
:105B88009030AA0027082907AB0028082A3DAC0056
:105B980025082B07AD0026082C3DAE002D0823074D
:105BA80084002E08243D85000008B3006F08033ADE
:105BB800031D112E6E0BFF2DB408031DE82D2100C7
:105BC8004E08033A03191D2F2000340BF02D210035
:105BD8004E08023A03191D2F20003408033A031D0A
:105BE800F92D21004E0303191D2F20003408043A13
:105BF800031D232FB12E6E08023A031DC62E340B47
:105C0800092E2100520303191D2F20003408023ADF
